:1000000012C0DEC02BC02AC029C028C027C026C00D
:1000100025C024C023C022C021C020C01FC01EC0D4
:100020001DC01CC01BC011241FBECFE5D4E0DEBF25
:10003000CDBF11E0A0E6B0E0EEE3F1E102C0059033
:100040000D92A236B107D9F711E0A2E6B1E001C0E6
:100050001D92A53DB107E1F7D4D16FC8D1CF8F7004
:100060000895807F0895E0E4F0E0108283E389B989
:100070001BB888E08AB986E880830895982FEBE260
:10008000F0E0808185FFFDCF9CB90895982F809185
:1000900057018F3F11F41092570180915701E7EB00
:1000A000F1E0E80FF11D9083809157018F5F8093FD
:1000B00057010895E5E5F0E0808183608083EBE5FA
:1000C000F0E08081806480830895E4EBF1E08FEFBD
:1000D000DF018D938C9332968083089582E087BBF5
:1000E00088BB14BA15BA81BB12BA0895FC01878186
:1000F00090E09F938F93868190E09F938F9385816B
:1001000090E09F938F93848190E09F938F9383815E
:1001100090E09F938F93828190E09F938F93818152
:1001200090E09F938F93808190E09F938F9380E6E0
:1001300090E09F938F9342D58DB79EB742960FB6AE
:10014000F8949EBF0FBE8DBF08950F931F9332D5B5
:10015000082F8091B4018F3F39F485E082DF0817C2
:1001600019F40093B40129C08091B5018F3F69F45F
:100170001091B40185E075DF181739F485E06FDF61
:10018000081719F40093B50118C01091B40185E067
:1001900068DF181789F41091B50185E060DF181742
:1001A00059F48091B6018F3F39F4802F8E50823000
:1001B00018F40093B60101C088DF1F910F910895D4
:1001C0001F920F920FB60F9211242F933F934F93CC
:1001D0005F936F937F938F939F93AF93BF93EF93AF
:1001E000FF93809157018F3F09F0AFDFFF91EF91AF
:1001F000BF91AF919F918F917F916F915F914F913F
:100200003F912F910F900FBE0F901F9018958F92D6
:100210009F92AF92BF92CF92DF92FF920F931F9364
:10022000CF93DF931091B40185E01BDF181709F01D
:1002300072C01091B50185E012DF181709F06BC08C
:100240008091B6018F3029F08091B6018E3009F08F
:1002500062C0B0D4F82E80915701882309F45AC0A7
:1002600000E00F2EF4E6CF2EF1E0DF2EF02D0F2E62
:10027000F6E9AF2EF0E0BF2EF02D0F2EF8E88F2E0E
:10028000F0E09F2EF02D8FE0F816F1F4802F90E033
:10029000EC01CC0FDD1FCC0FDD1FCC0FDD1FC60125
:1002A0008C0F9D1F1CD4813079F5CC0DDD1DCE0146
:1002B00021D48DE090E094D4CE0118DF9F928F92EC
:1002C0007DD40F900F9020C08EE0F816E9F4802FB7
:1002D00090E0EC01CC0FDD1FCC0FDD1FCC0FDD1F3C
:1002E000C6018C0F9D1FFBD3882371F4CC0DDD1D3F
:1002F000CE0100D48DE090E073D4CE01F7DEBF9242
:10030000AF925CD40F900F900F5F80915701081748
:1003100008F4B9CFDADEDF91CF911F910F91FF90F2
:10032000DF90CF90BF90AF909F908F9008956F9285
:100330007F928F929F92BF92CF92DF92EF92FF9225
:100340000F931F93DF93CF93CDB7DEB729970FB6E7
:10035000F894DEBF0FBECDBF8FEF898700E010E0BD
:100360000F2EF9E06F2E7724F02D6C0E7D1E7E018E
:100370000894E11CF11C882499240F2EF4E6CF2E5A
:10038000F1E0DF2EF02DB02EB701C30115D3398572
:100390003F3F11F13E3F01F1A401B801660F771F05
:1003A000660F771F660F771FF701E40FF51F208197
:1003B000CB01840F951FF601E80FF91F20834F5FD3
:1003C0005F4F4830510581F7B394332329F00F5F15
:1003D0001F4F0A301105B9F68B2D29960FB6F894E8
:1003E000DEBF0FBECDBFCF91DF911F910F91FF9068
:1003F000EF90DF90CF90BF909F908F907F906F9005
:1004000008952F923F924F925F926F927F928F92B8
:100410009F92AF92BF92CF92DF92FF920F931F9362
:10042000DF93CF9300D000D00F92CDB7DEB789E431
:1004300091E09093D2018093D10150DE87D313DEF7
:1004400039DEFBD274DF809363018091630190E019
:100450009F938F9383EA90E09F938F93AFD3809184
:1004600063010F900F900F900F90882309F4F0C054
:10047000FF240F2EF4E6CF2EF1E0DF2EF02D0F2E0D
:10048000FBEEAF2EF0E0BF2EF02D0F2EFAEC8F2EEC
:10049000F0E09F2EF02D3E010894611C711C0F2E80
:1004A000F3E04F2E5524F02D4C0E5D1E0F2EF1EE75
:1004B0002F2EF0E03F2EF02D8F2D90E0880F991F0A
:1004C000880F991F880F991FF601E80FF91FE08127
:1004D000E03109F446C0E13138F4E13009F455C0A7
:1004E000E53009F0AFC093C0E83239F0EA3309F4DF
:1004F00078C0E43109F0A6C05EC08DE090E070D312
:100500008F2D90E0880F991F880F991F880F991FD2
:100510008601080F191FC801E9DD9F928F924ED303
:10052000C80109D160E273E080E090E089D2B301B4
:10053000C8010FD1B201C301B7D08D8190E09F9364
:100540008F938C8190E09F938F933F922F9236D31D
:100550008DB79EB708960FB6F8949EBF0FBE8DBF9D
:1005600071C08DE090E03CD38F2D90E0880F991FF3
:10057000880F991F880F991F8C0D9D1DB7DDBF92A5
:10058000AF921CD30F900F905DC08DE090E028D308
:100590008F2D90E0880F991F880F991F880F991F42
:1005A0008C0D9D1DA3DD82E091E09F938F9306D378
:1005B0000F900F9047C08DE090E012D38F2D90E008
:1005C000880F991F880F991F880F991F8C0D9D1DEB
:1005D0008DDD8AE191E09F938F93F0D20F900F9081
:1005E00031C08DE090E0FCD28F2D90E0880F991FF4
:1005F000880F991F880F991F8C0D9D1D77DD8BE249
:1006000091E09F938F93DAD20F900F901BC08DE0F3
:1006100090E0E6D28F2D90E0880F991F880F991FE8
:10062000880F991F8601080F191FC8015FDD8AE333
:1006300091E09F938F93C2D28F2D28DDC80113D2F2
:100640000F900F90F39480916301F81608F434CF63
:100650003CDD7894DCDDFECF1F93DC016115710574
:1006600011F430E01EC030E040E050E018E098E1C6
:10067000FD01E40FF51FE081212F8E2F832780FFDE
:1006800006C0832F89278695382F306801C036959C
:10069000215011F0E695F1CF4F5F5F4F641775075A
:1006A00039F7832F1F9108950F931F93CF93DF93F3
:1006B0008C01AB01DB011196FC01219122952F7079
:1006C0002C93808190E08770907082959295907FB6
:1006D0009827807F9827282B2C93E80188818F709A
:1006E00025E0829FC0011124EB018A83E081EC3F69
:1006F00038F08C919FE7981B9C938DE288830DC006
:10070000D8018C91882331F4EE2321F480E2EB01AF
:10071000888303C08BE2FA018083DF91CF911F9120
:100720000F91089582D0882329F08CECB7D084E40F
:10073000B5D081E00895CF93DF93EC0176D0882384
:1007400029F0CE015FD184E4A9D081E0DF91CF917F
:100750000895CF92DF92EF92FF920F931F93DF9352
:10076000CF93CDB7DEB729970FB6F894DEBF0FBE93
:10077000CDBF8C016B0159D0882311F490E033C0B8
:10078000F8018081882319F48CEC88D002C0C8015C
:1007900039D18EEB83D0DE011196E8E5F1E089E0F6
:1007A00001900D928150E1F78E010F5F1F4F0F2EC8
:1007B000FAE0EF2EFF24F02DEC0EFD1E8CD0F80198
:1007C00081938F01EE15FF05C9F78981F6018083BA
:1007D0008A81818369E070E0CE0101963DDF90E07F
:1007E000882309F491E0892F29960FB6F894DEBF8B
:1007F0000FBECDBFCF91DF911F910F91FF90EF9072
:10080000DF90CF9008950895882331F0E8E3F0E079
:1008100080818D7F80830895E8E3F0E080818260AD
:100820008083089586B38170089581E0EDDF80ECC8
:1008300093E00197F1F780E0E7DF80EA8A95F1F72E
:10084000F1DFE8E4F3E03197F1F790E0882309F471
:1008500091E0892F08951F93182F81E0D5DF82E062
:100860008A95F1F7112311F080E0CEDF80EA8A95B6
:10087000F1F780E0C9DF1F91089581E0C5DF82E0D4
:100880008A95F1F780E0C0DF85E28A95F1F7CADF4B
:1008900098E79A95F1F7811181E00895FF920F93FF
:1008A0001F93CF93DF93F82EC0E0D0E001E010E07B
:1008B000C8010C2E02C0880F991F0A94E2F78F21FD
:1008C000CADF2196C830D10599F7DF91CF911F91EA
:1008D0000F91FF900895EF92FF921F93CF93DF93B4
:1008E00010E0C0E0D0E0EE24FF24E394C6DF8823CC
:1008F00041F0C7010C2E02C0880F991F0A94E2F73D
:10090000182B2196C830D10589F7812FDF91CF911F
:100910001F91FF90EF900895CF92DF92EF92FF9298
:100920000F931F93CF93DF93D82EEB017EDF8823A5
:1009300071F180EFB3DF80E4EE24CC24C394082F60
:100940000F2EF8EFFF2EF02DF80E97DF182F95DF02
:10095000882339F0112371F00F2EFEEFEF2EF02DCA
:1009600018C0112311F50D15F0F0888180FF02C029
:10097000D016C9F4812F6FDF888186958883015056
:100980000F1519F7002329F02196802FD8CFEE24D8
:10099000EA948E2DDF91CF911F910F91FF90EF90F0
:1009A000DF90CF900895E02E1C2D812F54DF888199
:1009B000869580688883E3CF0F931F938C01FC0199
:1009C0008081AADFF80180831F910F9108950F9312
:1009D0001F93CF93DF938C0128DF882371F083E38B
:1009E0005DDFC0E0D0E077DFF801EC0FFD1F808312
:1009F0002196C830D105B9F781E0DF91CF911F91E1
:100A00000F9108950F931F93CF93DF938C010DDF08
:100A1000882371F085E542DFC0E0D0E0F801EC0FFB
:100A2000FD1F80813BDF2196C830D105B9F781E0F9
:100A3000DF91CF911F910F91089583E083BF0895B7
:100A40009B01AC01E2E5F0E008C0108280818D37A7
:100A5000E8F3215030404040504021153105410518
:100A6000510599F708954091620150E0A7EBB1E07C
:100A70009A01220F331F240F351FFD01E20FF31FD0
:100A8000918380832091620130E0C901880F991F12
:100A9000820F931FA80FB91F12961C9280916201BA
:100AA0008F5F809362010895BC0120E030E047EB46
:100AB00051E0A22FC901880F991F820F931FFA01DD
:100AC000E80FF91F808191818617970731F02F5F1A
:100AD0003F4F2830310569F7AFEF8A2F0895E4DFE3
:100AE00090E0FC01EE0FFF1FE80FF91FE754FE4FE7
:100AF00080810895CF93DF93EC0197DE882319F16D
:100B0000CE0180DFCE01D0DF282F30E0F901EE0FDB
:100B1000FF1FE20FF31FE754FE4F8081882351F43B
:100B2000F901EE0FFF1FE20FF31FE754FE4F81E0C4
:100B3000808309C0F901EE0FFF1FE20FF31FE75496
:100B4000FE4F108281E0DF91CF910895E4E3F0E061
:100B50008081807F8083E5E3F0E080818083E1E332
:100B6000F0E080818B7F8083E2E3F0E0808184602D
:100B7000808308958C30A1F08D3038F48A3071F084
:100B80008B3050F48823A1F008958E3069F08E30B8
:100B900048F08F3071F40AC08EE0089580E0089527
:100BA0008FE008958AE008958BE008958CE0089521
:100BB0008DE0089583B38F70DDDF0895A0E0B0E08D
:100BC000E3EEF5E093C2FE01359661917191AF01BC
:100BD0008091D1019091D20109D02096E2E0A2C289
:100BE0006091D1017091D201E7D10895ABE0B0E0FE
:100BF000EBEFF5E06BC23C012B015A01FC011782BF
:100C00001682838181FD03C06FEF7FEFBBC19AE045
:100C1000892E1E010894211C311CF3012381F2014D
:100C200023FD859123FF81912F01882309F4A7C11A
:100C3000853239F423FD859123FF81912F0185327F
:100C400021F4B30190E0B8D1E8CF982FDD24CC2473
:100C50009924FFE1FD15D0F09B3269F09C3228F415
:100C6000903259F0933291F40EC09D3249F0903396
:100C700069F441E024C052E0D52A84E0D82A28C093
:100C800098E0D92A25C0E0E1DE2A22C0D7FC29C09D
:100C9000892F80538A3070F4D6FE05C0989C902C22
:100CA0001124980E15C0C89CC02C1124C80EF0E267
:100CB000DF2A0EC09E3229F4D6FC61C140E4D42A5A
:100CC00007C09C3619F450E8D52A02C0983649F47A
:100CD000F20123FD959123FF91912F01992309F0B2
:100CE000B8CF892F8554833018F08052833038F480
:100CF00044E050E0A40EB51E5FE359830FC0933665
:100D000031F0933779F0933509F052C01FC0F501E7
:100D10008081898342E050E0A40EB51E710101E09C
:100D200010E011C0F501E080F180D6FC03C06FEF48
:100D30007FEF02C0692D70E042E050E0A40EB51EC6
:100D4000C7012FD18C015FE7D52213C0F501E080E8
:100D5000F180D6FC03C06FEF7FEF02C0692D70E019
:100D600042E050E0A40EB51EC70110D18C0150E83E
:100D7000D52AD3FE06C018C0B30180E290E01CD192
:100D8000CA948C2D90E008171907B0F30DC0F70135
:100D9000D7FC8591D7FE81917F01B30190E00CD102
:100DA000C110CA94015010400115110581F7E4C02B
:100DB000943611F0993669F5D7FE08C0F501E08048
:100DC000F1800281138144E050E00AC0F501808186
:100DD00091817C010027F7FC0095102F42E050E044
:100DE000A40EB51E5FE6D52217FF0AC01095009528
:100DF000F094E094E11CF11C011D111D80E8D82A3B
:100E00002AE030E0A101C801B70102D1F82EF218A2
:100E10003FC0953729F41D2D1F7E2AE030E01DC00C
:100E20001D2D197F9F3661F0903720F4983509F019
:100E3000A6C00FC0903739F0983709F0A0C004C0A1
:100E400028E030E00AC0106114FD146020E130E0B9
:100E500004C014FD166020E132E017FF08C0F50160
:100E6000608171818281938144E050E008C0F50186
:100E700080819181BC0180E090E042E050E0A40ECE
:100E8000B51EA101C5D0F82EF2188FE7D82ED122B9
:100E9000D6FE0BC05EEFD522F91438F4D4FE07C09D
:100EA000D2FC05C08FEED82202C01F2D01C0192D23
:100EB000D4FE0DC0FE01EF0DF11D8081803319F4C9
:100EC00099EED92208C01F5FD2FE05C003C08D2D48
:100ED000867809F01F5F0D2DD3FC13C0D0FE0EC025
:100EE0001C1510F09F2C0AC09F2C9C0C911A1C2DD5
:100EF00005C0B30180E290E05FD01F5F1C15C8F30E
:100F000004C01C1510F4C11A01C0CC2404FF0FC08A
:100F1000B30180E390E050D002FF1CC001FD03C08C
:100F200088E790E002C088E590E0B3010CC0802F14
:100F3000867881F001FF02C08BE201C080E2D7FC1D
:100F40008DE2B30190E038D005C0B30180E390E0BA
:100F500033D09A94F914C8F3FA94F101EF0DF11D0E
:100F6000B301808190E028D0FF20B1F705C0B30124
:100F700080E290E021D0CA94CC20C9F74ECEF30194
:100F800066817781CB012B96E2E1BCC0FC01059024
:100F9000615070400110D8F7809590958E0F9F1F7B
:100FA0000895FC016150704001900110D8F78095C0
:100FB00090958E0F9F1F08950F931F93CF93DF93EC
:100FC0008C01EB018B8181FF1BC082FF0DC02E8144
:100FD0003F818C819D812817390764F4E881F9816C
:100FE0000193F983E88306C0E885F985802F099588
:100FF000892B31F48E819F8101969F838E8302C05D
:101000000FEF1FEFC801DF91CF911F910F9108954E
:10101000FA01AA27283051F1203181F1E8946F9329
:101020006E7F6E5F7F4F8F4F9F4FAF4FB1E03ED0CF
:10103000B4E03CD0670F781F891F9A1FA11D680F6D
:10104000791F8A1F911DA11D6A0F711D811D911DA0
:10105000A11D20D009F468943F912AE0269F112415
:101060003019305D3193DEF6CF010895462F477079
:10107000405D4193B3E00FD0C9F7F6CF462F4F70D4
:10108000405D4A3318F0495D31FD4052419302D032
:10109000A9F7EACFB4E0A6959795879577956795D8
:1010A000BA95C9F700976105710508959B01AC01D8
:1010B0000A2E06945795479537952795BA95C9F7FF
:1010C000620F731F841F951FA01D08952F923F92DA
:1010D0004F925F926F927F928F929F92AF92BF9248
:1010E000CF92DF92EF92FF920F931F93CF93DF93F4
:1010F000CDB7DEB7CA1BDB0B0FB6F894DEBF0FBE51
:10110000CDBF09942A88398848885F846E847D849D
:101110008C849B84AA84B984C884DF80EE80FD809F
:101120000C811B81AA81B981CE0FD11D0FB6F89415
:0E113000DEBF0FBECDBFED010895F894FFCFD6
:10113E00252E325820252E325820252E3258202585
:10114E002E325820252E325820252E325820252E6C
:10115E00325820252E325800202D20537769746383
:10116E0068204F464600202D20537769746368200F
:10117E004F4E002D2D2D2D2D2D2D2D2D2D20466F2D
:10118E00756E642025642064657669636573202D11
:10119E002D2D2D2D2D2D2D2D2D00202D205468651E
:1011AE00726D6F6D65746572204453313842323002
:1011BE00003A2025642E2564204300202D205468FB
:1011CE0065726D6F6D65746572204453313853329C
:1011DE003000202D2053657269616C206275747425
:1011EE006F6E2044533139393000202D2045455043
:1011FE00524F4D2044533234333000202D2053773C
:10120E0069746368203234313300202D205377699E
:10121E007463682032343035000000000200000094
:10122E00003E0000000000FF01020304050607084F
:02123E000900A5
:00000001FF
